:100000000C942A000C943F000C943F000C943F0089
:100010000C943F000C943F000C943F000C943F0064
:100020000C943F000C943F000C943F000C943F0054
:100030000C943F000C943F000C943F000C943F0044
:100040000C943F000C943F000C943F000C943F0034
:100050000C943F0011241FBECFE5D8E0DEBFCDBF1A
:1000600010E0A0E6B0E0E0E4F4E002C005900D92FC
:10007000A036B107D9F70E9405020C941E020C9419
:100080000000813001F130F08230B1F1833009F4A9
:100090004CC00895442359F02AB381E090E002C097
:1000A000880F991F6A95E2F7822B8ABB08952AB3BD
:1000B00081E090E002C0880F991F6A95E2F7809571
:1000C00082238ABB0895442359F027B381E090E04E
:1000D00002C0880F991F6A95E2F7822B87BB0895AB
:1000E00027B381E090E002C0880F991F6A95E2F77C
:1000F0008095822387BB0895442359F024B381E07F
:1001000090E002C0880F991F6A95E2F7822B84BBAA
:10011000089524B381E090E002C0880F991F6A958A
:10012000E2F78095822384BB0895442359F021B3DC
:1001300081E090E002C0880F991F6A95E2F7822B58
:1001400081BB089521B381E090E002C0880F991F20
:100150006A95E2F78095822381BB0895813001F191
:1001600030F08230B1F1833009F44CC0089544235B
:1001700059F02BB381E090E002C0880F991F6A9577
:10018000E2F7822B8BBB08952BB381E090E002C095
:10019000880F991F6A95E2F7809582238BBB08959B
:1001A000442359F028B381E090E002C0880F991FE2
:1001B0006A95E2F7822B88BB089528B381E090E02E
:1001C00002C0880F991F6A95E2F78095822388BB49
:1001D0000895442359F025B381E090E002C0880FD0
:1001E000991F6A95E2F7822B85BB089525B381E0BC
:1001F00090E002C0880F991F6A95E2F780958223EC
:1002000085BB0895442359F022B381E090E002C0F9
:10021000880F991F6A95E2F7822B82BB089522B35B
:1002200081E090E002C0880F991F6A95E2F78095FF
:10023000822382BB0895813069F028F0823089F0F2
:100240008330B1F00895613019F48FEF8ABB0895BF
:100250001ABA0895613019F48FEF87BB089517BA61
:100260000895613019F48FEF84BB089514BA08958E
:10027000613019F48FEF81BB089511BA0895813070
:1002800041F028F0823039F0833039F008956BBBAB
:10029000089568BB089565BB089562BB08958EBB41
:1002A0009FBB6DBB8CB384608CBB8CB382608CBBFA
:1002B000E199FECF08958EBB9FBB8CB381608CBB50
:1002C0008DB30895CF93DF93C82FD62F41E00E94BE
:1002D000AE008FE99FE00197F1F700C0000040E019
:1002E0006D2F8C2F0E94AE00DF91CF910895EF9279
:1002F0000F93CF93DF93D82F862F642FC22F40E028
:100300000E94AE006E2D8D2F0E943F01602F8C2F1A
:100310000E946201DF91CF910F91EF900895DF92DB
:10032000EF92FF920F931F93CF93DF93C82FD62F97
:10033000142FF22E61E00E941B0141E0612F8D2FEE
:100340000E94410041E0602F8F2D0E9441008FE903
:100350009FE00197F1F700C000000F2EF8E3EF2EA9
:10036000F02D2F2D412F6D2F8C2F0E9477018FECB8
:1003700097E00197F1F700C000000F2EFEE0EF2E8E
:10038000F02D2F2D412F6D2F8C2F0E9477018FEC98
:1003900097E00197F1F700C00000EE24E3942F2DC1
:1003A000412F6D2F8C2F0E9477018FEC97E00197E2
:1003B000F1F700C000000F2EF6E0EF2EF02D2F2DEC
:1003C000412F6D2F8C2F0E947701DF91CF911F91CC
:1003D0000F91FF90EF90DF900895EF920F93CF93DE
:1003E000DF93D82F862F642FC22F41E00E94AE00EA
:1003F0006E2D8D2F0E943F01602F8C2F0E94620175
:10040000DF91CF910F91EF90089501E022E040E05D
:1004100062E083E00E948F016DE485E090E00E943D
:100420004F0185E090E00E945B01E82E01E022E0B0
:1004300040E062E083E00E94ED01EECFF894FFCF50
:00000001FF
