S01000005350495F544553542E7372656389
S11300000C942A000C943F000C943F000C943F0085
S11300100C943F000C943F000C943F000C943F0060
S11300200C943F000C943F000C943F000C943F0050
S11300300C943F000C943F000C943F000C943F0040
S11300400C943F000C943F000C943F000C943F0030
S11300500C943F0011241FBECFE5D8E0DEBFCDBF16
S113006010E0A0E6B0E0E0EAF2E002C005900D92F4
S1130070A036B107D9F70E941B010C944E010C94D1
S11300800000813001F130F08230B1F1833009F4A5
S11300904CC00895442359F02AB381E090E002C093
S11300A0880F991F6A95E2F7822B8ABB08952AB3B9
S11300B081E090E002C0880F991F6A95E2F780956D
S11300C082238ABB0895442359F027B381E090E04A
S11300D002C0880F991F6A95E2F7822B87BB0895A7
S11300E027B381E090E002C0880F991F6A95E2F778
S11300F08095822387BB0895442359F024B381E07B
S113010090E002C0880F991F6A95E2F7822B84BBA6
S1130110089524B381E090E002C0880F991F6A9586
S1130120E2F78095822384BB0895442359F021B3D8
S113013081E090E002C0880F991F6A95E2F7822B54
S113014081BB089521B381E090E002C0880F991F1C
S11301506A95E2F78095822381BB0895813001F18D
S113016030F08230B1F1833009F44CC00895442357
S113017059F02BB381E090E002C0880F991F6A9573
S1130180E2F7822B8BBB08952BB381E090E002C091
S1130190880F991F6A95E2F7809582238BBB089597
S11301A0442359F028B381E090E002C0880F991FDE
S11301B06A95E2F7822B88BB089528B381E090E02A
S11301C002C0880F991F6A95E2F78095822388BB45
S11301D00895442359F025B381E090E002C0880FCC
S11301E0991F6A95E2F7822B85BB089525B381E0B8
S11301F090E002C0880F991F6A95E2F780958223E8
S113020085BB0895442359F022B381E090E002C0F5
S1130210880F991F6A95E2F7822B82BB089522B357
S113022081E090E002C0880F991F6A95E2F78095FB
S1130230822382BB08950E942D018FE39CE90197DC
S1130240F1F700C000008DE60E944A018FE39CE9AB
S11302500197F1F700C00000F0CF41E065E081E0D4
S11302600E94410041E067E081E00E94410040E0DB
S113027066E081E00E94410041E064E081E00E9488
S1130280410040E064E081E00E94AE008DB18165F0
S11302908DB908958FB9779BFECF0895F894FFCF59
S9030000FC
