:100000000C942A000C9447000C9447000C94470071
:100010000C9447000C9447000C9447000C94470044
:100020000C9447000C9447000C9447000C94470034
:100030000C9447000C9447000C9447000C94470024
:100040000C9447000C9447000C9447000C94470014
:100050000C94470011241FBECFE5D8E0DEBFCDBF12
:1000600010E0A0E6B0E0E6E9F7E002C005900D92EE
:10007000A036B107D9F720E0A0E6B0E001C01D929C
:10008000AE36B207E1F70E9458020C94C9030C94F3
:100090000000813001F130F08230B1F1833009F499
:1000A0004CC00895442359F02AB381E090E002C087
:1000B000880F991F6A95E2F7822B8ABB08952AB3AD
:1000C00081E090E002C0880F991F6A95E2F7809561
:1000D00082238ABB0895442359F027B381E090E03E
:1000E00002C0880F991F6A95E2F7822B87BB08959B
:1000F00027B381E090E002C0880F991F6A95E2F76C
:100100008095822387BB0895442359F024B381E06E
:1001100090E002C0880F991F6A95E2F7822B84BB9A
:10012000089524B381E090E002C0880F991F6A957A
:10013000E2F78095822384BB0895442359F021B3CC
:1001400081E090E002C0880F991F6A95E2F7822B48
:1001500081BB089521B381E090E002C0880F991F10
:100160006A95E2F78095822381BB0895813001F181
:1001700030F08230B1F1833009F44CC0089544234B
:1001800059F02BB381E090E002C0880F991F6A9567
:10019000E2F7822B8BBB08952BB381E090E002C085
:1001A000880F991F6A95E2F7809582238BBB08958B
:1001B000442359F028B381E090E002C0880F991FD2
:1001C0006A95E2F7822B88BB089528B381E090E01E
:1001D00002C0880F991F6A95E2F78095822388BB39
:1001E0000895442359F025B381E090E002C0880FC0
:1001F000991F6A95E2F7822B85BB089525B381E0AC
:1002000090E002C0880F991F6A95E2F780958223DB
:1002100085BB0895442359F022B381E090E002C0E9
:10022000880F991F6A95E2F7822B82BB089522B34B
:1002300081E090E002C0880F991F6A95E2F78095EF
:10024000822382BB08958130E1F030F0823071F179
:10025000833009F440C053C049B381E090E09C0171
:10026000062E02C0220F331F0A94E2F7842F90E07B
:100270008223932302C0959587956A95E2F7982F7C
:100280003EC046B381E090E09C01062E02C0220FE2
:10029000331F0A94E2F7842F90E08223932302C055
:1002A000959587956A95E2F7982F29C043B381E029
:1002B00090E09C01062E02C0220F331F0A94E2F741
:1002C000842F90E08223932302C0959587956A95A9
:1002D000E2F7982F14C040B381E090E09C01062E15
:1002E00002C0220F331F0A94E2F7842F90E082238A
:1002F000932302C0959587956A95E2F7982F892FE9
:100300000895813069F028F0823089F08330B1F0AF
:100310000895613019F48FEF8ABB08951ABA0895D1
:10032000613019F48FEF87BB089517BA08956130D3
:1003300019F48FEF84BB089514BA0895613019F44D
:100340008FEF81BB089511BA0895813041F028F0F4
:10035000823039F0833039F008956BBB089568BB63
:10036000089565BB089562BB0895CF93DF93C82FAE
:10037000D62F41E00E94B6008FE99FE00197F1F788
:1003800000C0000040E06D2F8C2F0E94B600DF916E
:10039000CF910895EF920F93CF93DF93D82F862FAD
:1003A000642FC22F40E00E94B6006E2D8D2F0E9458
:1003B000A501602F8C2F0E94B501DF91CF910F9185
:1003C000EF900895DF92EF92FF920F931F93CF93D8
:1003D000DF93C82FD62F142FF22E61E00E948101E7
:1003E00041E0612F8D2F0E94490041E0602F8F2D49
:1003F0000E9449008FE99FE00197F1F700C00000DB
:100400000F2EF8E3EF2EF02D2F2D412F6D2F8C2F77
:100410000E94CA018FEC97E00197F1F700C000003D
:100420000F2EFEE0EF2EF02D2F2D412F6D2F8C2F54
:100430000E94CA018FEC97E00197F1F700C000001D
:10044000EE24E3942F2D412F6D2F8C2F0E94CA0193
:100450008FEC97E00197F1F700C000000F2EF6E057
:10046000EF2EF02D2F2D412F6D2F8C2F0E94CA01C2
:10047000DF91CF911F910F91FF90EF90DF90089542
:10048000EF920F93CF93DF93D82F862F642FC22F35
:1004900041E00E94B6006E2D8D2F0E94A501602FB5
:1004A0008C2F0E94B501DF91CF910F91EF900895AD
:1004B0000E94490301E022E040E062E080E00E9407
:1004C000E20140E062E083E00E94490062E083E0F4
:1004D0000E9423018111FACF0E946E03C0E00DC07B
:1004E000EC2FF0E0EA59FF4FE08001E022E040E02D
:1004F00062E080E00E944002CF5FC83088F3E6CF20
:10050000CF93C82F81E00E94B80382E00E94C50308
:100510008C2F0E94C50380E00E94C503C82F80E095
:100520000E94B8038C2FCF910895CF93DF93D82FDB
:10053000C62F81E00E94B80383E00E94C5038D2F7F
:100540000E94C5038C2F0E94C50380E00E94B8035F
:10055000DF91CF91089581E00E94B80380EC0E9462
:10056000C50380E00E94B80308951F93CF93DF93E3
:10057000182FD62FC42F81E00E94B80385E00E9477
:10058000C503812F0E94C5038D2F0E94C5038C2FA8
:100590000E94C50380E00E94B803DF91CF911F91B4
:1005A0000895CF93C82F682F8AE20E9495026C2F7E
:1005B00089E20E9495026C2F88E20E949502CF91F9
:1005C0000895811106C040E060EE8FE00E94B50200
:1005D0000895813059F440E160EE8FE00E94B50249
:1005E00080E00E9480028031D9F70895823059F46A
:1005F00040E260EE8FE00E94B50280E00E9480023F
:100600008032D9F70895833059F440E360EE8FE0EB
:100610000E94B50280E00E9480028033D9F70895DD
:10062000843051F440E460EE8FE00E94B50280E037
:100630000E9480028034D9F70895CF92DF92EF9222
:10064000FF92CF93C82F6A017B0181E00E94B8031B
:1006500083E00E94C5038C2F0E94C503D701C60109
:10066000689412F8B695A795979587951694D1F743
:100670000E94C5038C2D8295880F807E0E94C50341
:1006800080E00E94B803CF91FF90EF90DF90CF9071
:1006900008950E9493030E94AB0284E00E94E1024D
:1006A00080E00E9480028034D9F745E061EB80E869
:1006B0000E94D10240E050E0BA0180E20E941D0396
:1006C00040E050E0BA0184E20E941D0361E08BE249
:1006D0000E94950280E00E94E10208950F931F930B
:1006E000CF9381E00E94B80382E00E94C50380E6B8
:1006F0000E94C503C0E00AC00C2F10E080E00E94F9
:10070000C503F801E05AFF4F8083CF5FCE30A0F3DE
:1007100080E00E94B80360E08CE20E949502CF91D5
:100720001F910F91089541E065E081E00E9449002A
:1007300041E067E081E00E94490040E066E081E03E
:100740000E9449008DB180648F7D8DB941E064E0E5
:1007500081E00E94490041E064E081E00E94B6002F
:100760008DB18061807F8DB98EB18E7F8EB90895F5
:10077000813029F440E064E00E94B600089541E031
:1007800064E081E00E94B60008958FB9779BFECFA8
:060790000895F894FFCF6C
:00000001FF
