:100000000C942A000C9447000C9447000C94470071
:100010000C9447000C9447000C9447000C94470044
:100020000C9447000C9447000C9447000C94470034
:100030000C9447000C9447000C9447000C94470024
:100040000C9447000C9447000C9447000C94470014
:100050000C94470011241FBECFE5D8E0DEBFCDBF12
:1000600010E0A0E6B0E0EAE7F5E002C005900D92EE
:10007000A836B107D9F720E0A8E6B0E001C01D928C
:10008000A836B207E1F70E9423010C94BB020C943E
:100090000000813001F130F08230B1F1833009F499
:1000A0004CC00895442359F02AB381E090E002C087
:1000B000880F991F6A95E2F7822B8ABB08952AB3AD
:1000C00081E090E002C0880F991F6A95E2F7809561
:1000D00082238ABB0895442359F027B381E090E03E
:1000E00002C0880F991F6A95E2F7822B87BB08959B
:1000F00027B381E090E002C0880F991F6A95E2F76C
:100100008095822387BB0895442359F024B381E06E
:1001100090E002C0880F991F6A95E2F7822B84BB9A
:10012000089524B381E090E002C0880F991F6A957A
:10013000E2F78095822384BB0895442359F021B3CC
:1001400081E090E002C0880F991F6A95E2F7822B48
:1001500081BB089521B381E090E002C0880F991F10
:100160006A95E2F78095822381BB0895813001F181
:1001700030F08230B1F1833009F44CC0089544234B
:1001800059F02BB381E090E002C0880F991F6A9567
:10019000E2F7822B8BBB08952BB381E090E002C085
:1001A000880F991F6A95E2F7809582238BBB08958B
:1001B000442359F028B381E090E002C0880F991FD2
:1001C0006A95E2F7822B88BB089528B381E090E01E
:1001D00002C0880F991F6A95E2F78095822388BB39
:1001E0000895442359F025B381E090E002C0880FC0
:1001F000991F6A95E2F7822B85BB089525B381E0AC
:1002000090E002C0880F991F6A95E2F780958223DB
:1002100085BB0895442359F022B381E090E002C0E9
:10022000880F991F6A95E2F7822B82BB089522B34B
:1002300081E090E002C0880F991F6A95E2F78095EF
:10024000822382BB0895CF93DF93CDB7DEB7289783
:100250000FB6F894DEBF0FBECDBF0E94F80188E054
:10026000E0E6F0E0DE01119601900D928A95E1F74B
:1002700008E010E02C2F2F5F41EE57E060E070E0C7
:1002800080E00E94300280E00AC0E1E0F0E0EC0F84
:10029000FD1FE80FF11D90819F5F90838F5F883075
:1002A000A0F32FE38DE093E0215080409040E1F7F0
:1002B00000C00000DDCFCF93C82F81E00E94AA02CA
:1002C00082E00E94B7028C2F0E94B70280E00E9459
:1002D000B702C82F80E00E94AA028C2FCF91089508
:1002E000CF93DF93D82FC62F81E00E94AA0283E02C
:1002F0000E94B7028D2F0E94B7028C2F0E94B70276
:1003000080E00E94AA02DF91CF91089581E00E94CF
:10031000AA0280EC0E94B70280E00E94AA0208951F
:100320001F93CF93DF93182FD62FC42F81E00E9405
:10033000AA0285E00E94B702812F0E94B7028D2F8A
:100340000E94B7028C2F0E94B70280E00E94AA028E
:10035000DF91CF911F910895CF93C82F682F8AE224
:100360000E9470016C2F89E20E9470016C2F88E25C
:100370000E947001CF910895811106C040E060EEA7
:100380008FE00E9490010895813059F440E160EEC1
:100390008FE00E94900180E00E945B018031D9F7DC
:1003A0000895823059F440E260EE8FE00E9490019F
:1003B00080E00E945B018032D9F70895833059F4C0
:1003C00040E360EE8FE00E94900180E00E945B01BC
:1003D0008033D9F70895843051F440E460EE8FE023
:1003E0000E94900180E00E945B018034D9F708955B
:1003F0000E9485020E94860184E00E94BC0180E088
:100400000E945B018034D9F745E061EB80E80E94EF
:10041000AC0180E00E94BC01089581110AC081E016
:100420000E94AA0281E80E94B70280E00E94AA020C
:100430000895813049F40E94AA0282E80E94B7021E
:1004400080E00E94AA020895823049F481E00E946F
:10045000AA0283E80E94B70280E00E94AA020895DF
:100460008F929F92AF92BF92FF920F931F93CF9361
:10047000DF93F82E4A015B01D22F81E00E94AA028D
:1004800083E00E94B70280E30E94B70280E00E94EE
:10049000B702D501C401689412F8B695A79597954F
:1004A00087951694D1F70E94B702882D8295880F00
:1004B000807E0E94B70280E00E94B70280E00E9426
:1004C000B702DF708D2F0E94B702C0E007C0F801AD
:1004D000EC0FF11D80810E94B702CF5F8C2F90E05E
:1004E0004D2F50E08417950794F380E00E94AA02F4
:1004F0008F2D0E940D02DF91CF911F910F91FF90E0
:10050000BF90AF909F908F90089541E065E081E0AB
:100510000E94490041E067E081E00E94490040E01C
:1005200066E081E00E9449008DB180648F7D8DB9C5
:1005300041E064E081E00E94490041E064E081E044
:100540000E94B6008DB18061807F8DB98EB18E7FA3
:100550008EB90895813029F440E064E00E94B6002D
:10056000089541E064E081E00E94B60008958FB9EB
:0A057000779BFECF0895F894FFCFAB
:08057A00616263646566676855
:00000001FF
