:100000000C942A000C94BC010C94E3010C940A0299
:100010000C943C000C943C000C943C000C943C0070
:100020000C943C000C943C000C9489020C944B0200
:100030000C943C000C943C000C943C000C943C0050
:100040000C943C000C943C000C943C000C943C0040
:100050000C943C0011241FBECFE5D8E0DEBFCDBF1D
:1000600020E0A0E6B0E001C01D92AF36B207E1F794
:100070000E9437020C94B3020C940000813001F10D
:1000800030F08230B1F1833009F44CC0089544233C
:1000900059F02AB381E090E002C0880F991F6A9559
:1000A000E2F7822B8ABB08952AB381E090E002C078
:1000B000880F991F6A95E2F7809582238ABB08957D
:1000C000442359F027B381E090E002C0880F991FC4
:1000D0006A95E2F7822B87BB089527B381E090E011
:1000E00002C0880F991F6A95E2F78095822387BB2B
:1000F0000895442359F024B381E090E002C0880FB2
:10010000991F6A95E2F7822B84BB089524B381E09E
:1001100090E002C0880F991F6A95E2F780958223CC
:1001200084BB0895442359F021B381E090E002C0DC
:10013000880F991F6A95E2F7822B81BB089521B33E
:1001400081E090E002C0880F991F6A95E2F78095E0
:10015000822381BB0895813001F130F08230B1F10A
:10016000833009F44CC00895442359F02BB381E047
:1001700090E002C0880F991F6A95E2F7822B8BBB33
:1001800008952BB381E090E002C0880F991F6A9513
:10019000E2F7809582238BBB0895442359F028B35E
:1001A00081E090E002C0880F991F6A95E2F7822BE8
:1001B00088BB089528B381E090E002C0880F991FA2
:1001C0006A95E2F78095822388BB0895442359F00D
:1001D00025B381E090E002C0880F991F6A95E2F78D
:1001E000822B85BB089525B381E090E002C0880F83
:1001F000991F6A95E2F78095822385BB0895442371
:1002000059F022B381E090E002C0880F991F6A95EF
:10021000E2F7822B82BB089522B381E090E002C016
:10022000880F991F6A95E2F78095822382BB089513
:10023000CF93C62F9FB790689FBF8130D9F120F030
:10024000823009F46CC081C041E062E083E00E942A
:100250003E00C1110AC085B78E7F85BF85B78D7FEF
:1002600085BF8BB780648BBF70C0C13051F485B738
:10027000816085BF85B78D7F85BF8BB780648BBF5D
:1002800064C0C33051F485B7816085BF85B7826093
:1002900085BF8BB780648BBF58C0C23009F055C092
:1002A00085B78E7F85BF85B7826085BF8BB7806439
:1002B0008BBF4BC041E063E083E00E943E00C11170
:1002C0000AC085B78B7F85BF85B7877F85BF8BB712
:1002D00080688BBF3AC0C13051F485B7846085BF58
:1002E00085B7877F85BF8BB780688BBF2EC0C33033
:1002F00051F485B7846085BF85B7886085BF8BB7AB
:1003000080688BBF22C0C23001F585B78B7F85BF67
:1003100085B7886085BF8BB780688BBF16C041E00A
:1003200062E081E00E943E00C23039F484B78F7BE6
:1003300084BF8BB780628BBF08C0C33031F484B7F1
:10034000806484BF8BB780628BBFCF91089581306A
:1003500049F018F0823059F0089570936900609365
:100360006800089570936500609364000895709329
:1003700067006093660008951F920F920FB60F9268
:1003800011242F933F934F935F936F937F938F939A
:100390009F93AF93BF93EF93FF93E0916800F09129
:1003A00069000995FF91EF91BF91AF919F918F9156
:1003B0007F916F915F914F913F912F910F900FBE61
:1003C0000F901F9018951F920F920FB60F92112445
:1003D0002F933F934F935F936F937F938F939F934D
:1003E000AF93BF93EF93FF93E0916400F0916500AA
:1003F0000995FF91EF91BF91AF919F918F917F915F
:100400006F915F914F913F912F910F900FBE0F9081
:100410001F9018951F920F920FB60F9211242F93D1
:100420003F934F935F936F937F938F939F93AF937C
:10043000BF93EF93FF93E0916600F09167000995F9
:10044000FF91EF91BF91AF919F918F917F916F91AC
:100450005F914F913F912F910F900FBE0F901F9082
:10046000189541E061E083E00E94AB00089541E00F
:1004700061E083E00E943E0040E061E083E00E9492
:10048000AB0063E080E00E94180161E372E080E06D
:100490000E94A701FFCF1F920F920FB60F92112457
:1004A0002F933F934F935F936F937F938F939F937C
:1004B000AF93BF93EF93FF938091600090916100A1
:1004C000A0916200B09163000196A11DB11D8093BF
:1004D000600090936100A0936200B09363008091EC
:1004E0006A00882329F0E0916D00F0916E00099573
:1004F000FF91EF91BF91AF919F918F917F916F91FC
:100500005F914F913F912F910F900FBE0F901F90D1
:1005100018951F920F920FB60F9211242F933F93AD
:100520004F935F936F937F938F939F93AF93BF93FB
:10053000EF93FF93E0916B00F0916C00099588B701
:10054000826088BFFF91EF91BF91AF919F918F9192
:100550007F916F915F914F913F912F910F900FBEBF
:0A0560000F901F901895F894FFCF3C
:00000001FF
